{
  "address": "0x45D368d41A9bceF1C6A15f953e5426AEc6a8da84",
  "abi": [
    {
      "inputs": [],
      "stateMutability": "nonpayable",
      "type": "constructor"
    },
    {
      "anonymous": false,
      "inputs": [
        {
          "indexed": true,
          "internalType": "address",
          "name": "addr",
          "type": "address"
        },
        {
          "indexed": false,
          "internalType": "bytes32",
          "name": "salt",
          "type": "bytes32"
        }
      ],
      "name": "Deployed",
      "type": "event"
    },
    {
      "inputs": [
        {
          "internalType": "bytes32",
          "name": "salt",
          "type": "bytes32"
        }
      ],
      "name": "deploy",
      "outputs": [
        {
          "internalType": "address",
          "name": "",
          "type": "address"
        }
      ],
      "stateMutability": "nonpayable",
      "type": "function"
    }
  ],
  "transactionHash": "0x8cb83258a5c5b4cfa957d80a7a4e455ae5459dd13041fabe0b06fc4b0ba9d7e2",
  "args": [],
  "numDeployments": 1,
  "solcInputHash": "12a1babaed4487eb8a416b0d92375424",
  "bytecode": "0x608060405234801561001057600080fd5b506104ff806100206000396000f3fe608060405234801561001057600080fd5b506004361061002b5760003560e01c80632b85ba3814610030575b600080fd5b61004361003e3660046100e8565b61005f565b6040516001600160a01b03909116815260200160405180910390f35b6000808260405161006f906100db565b8190604051809103906000f590508015801561008f573d6000803e3d6000fd5b509050806001600160a01b03167f94bfd9af14ef450884c8a7ddb5734e2e1e14e70a1c84f0801cc5a29e34d26428846040516100cd91815260200190565b60405180910390a292915050565b6103c88061010283390190565b6000602082840312156100fa57600080fd5b503591905056fe608060405234801561001057600080fd5b506103a8806100206000396000f3fe608060405234801561001057600080fd5b50600436106100365760003560e01c80633c905ada1461003b57806350ddda3814610050575b600080fd5b61004e61004936600461012a565b610063565b005b61004e61005e36600461012a565b6100c1565b33600090815260208190526040902061007c8282610264565b50336001600160a01b03167ff07dbf3d77012f0b44fefb89300e81a4682a0955db1e819c834d2023583489cb826040516100b69190610324565b60405180910390a250565b3360009081526020819052604090206100da8282610264565b50336001600160a01b03167f1721af3bd88b17087fbd950308f14ceb29a287cf0a9750b0ace83743a31485d7826040516100b69190610324565b634e487b7160e01b600052604160045260246000fd5b60006020828403121561013c57600080fd5b813567ffffffffffffffff8082111561015457600080fd5b818401915084601f83011261016857600080fd5b81358181111561017a5761017a610114565b604051601f8201601f19908116603f011681019083821181831017156101a2576101a2610114565b816040528281528760208487010111156101bb57600080fd5b826020860160208301376000928101602001929092525095945050505050565b600181811c908216806101ef57607f821691505b60208210810361020f57634e487b7160e01b600052602260045260246000fd5b50919050565b601f82111561025f57600081815260208120601f850160051c8101602086101561023c5750805b601f850160051c820191505b8181101561025b57828155600101610248565b5050505b505050565b815167ffffffffffffffff81111561027e5761027e610114565b6102928161028c84546101db565b84610215565b602080601f8311600181146102c757600084156102af5750858301515b600019600386901b1c1916600185901b17855561025b565b600085815260208120601f198616915b828110156102f6578886015182559484019460019091019084016102d7565b50858210156103145787850151600019600388901b60f8161c191681555b5050505050600190811b01905550565b600060208083528351808285015260005b8181101561035157858101830151858201604001528201610335565b506000604082860101526040601f19601f830116850101925050509291505056fea26469706673582212208022842b7bd561b4bc948df943a441566b1987512cacceda4e7904fd9e228e4164736f6c63430008140033a2646970667358221220c2e8e554e2a4988bca7afc25be76a388a520c5e4cf6a3854a29ecca83369fe3664736f6c63430008140033",
  "devdoc": {
    "kind": "dev",
    "methods": {},
    "version": 1
  },
  "userdoc": {
    "kind": "user",
    "methods": {},
    "version": 1
  },
  "storageLayout": {
    "storage": [],
    "types": null
  }
}